:100000000EC026C025C024C023C022C021C020C0ED
:100010001FC01EC01DC01CC01BC01AC019C01124A7
:100020001FBECFEDCDBF10E0A0E6B0E0EAEAF6E0FB
:1000300002C005900D92AA37B107D9F720E0AAE7D0
:10004000B0E001C01D92AB37B207E1F702D02BC37D
:10005000D7CFCF93DF93CDB7DD27C452CDBF83E297
:1000600087B983E886B987EA91E60197F1F700C07E
:100070000000369A349BFECF349885B185B78F7BCC
:1000800085BFB99A87B3877E87BB83E28ABD81E04B
:1000900083BF80E189BF4E0191E2890E911CFE0170
:1000A000319611921192E815F905D9F709D12FE986
:1000B00036E861E0215030406040E1F700C00000C8
:1000C00085B78F7B85BFBC98C49A80E389A385E000
:1000D0008AA37E0171E2E70EF11C62E0C701A2D1A2
:1000E000612C00E010E0312C712CECA22F2CFAE0F6
:1000F000AF2EB12CA0E2CA2ED12CE12CF12C369AD5
:10010000349BFECF349885B1843648F4369A349BBC
:10011000FECF349885B118BC8C39C0F3712C81E3C3
:1001200089A387EA91E60197F1F700C0000063E038
:100130008CA1922D77D1832D90E04AA1FC01EE0F86
:10014000FF1F21E030E02C0F3D1FE20FF31F7FE087
:10015000572E5422412C2BA1B201620F711D7183C5
:1001600060830196EFE03E2E382244FF05C01F5FFA
:1001700000E0113120F404C00F5F10E001C010E175
:10018000013108F000E1FE01319620E030E081917C
:100190009191280F391FE815F905C9F7B90154E005
:1001A000769567955A95E1F7B4992BC0103100F513
:1001B000232F332723363105C8F4C901B5015FD297
:1001C000E0E6F0E0AF0140565040619170E0681702
:1001D0007907C0F304C0475E5F4F2A5031092A30C7
:1001E0003105C8F7003120F0842F03C08FEF01C024
:1001F00080E072E0771609F45DC088BD92E0792E48
:1002000059C0103130F080E090E19C01261B370B83
:10021000B90184E0769567958A95E1F780E090E0F2
:1002200037D126E636E646EE5FE396D1FED09B0157
:10023000AC01103138F0D701C601821B930BA40B1F
:10024000B50B05C0DA01C9018096A11DB11D843628
:100250009105A105B1051CF4B7FD06C008C083E6F1
:1002600090E0A0E0B0E003C080E090E0DC019C0101
:10027000003120F4103110F420E230E0C901B50162
:10028000FED1E0E6F0E0AF0140565040619170E0F1
:1002900068177907C0F304C0475E5F4F2A503109E1
:1002A0002A303105C8F7842F31E0731619F048BDA4
:1002B00077247394639464E1661221CF88BD1FCFC5
:1002C000C09AC29ABA9AB89A8FEF8FB982E28DB962
:1002D00080EF8EB908958EB98BE200C000C0000097
:1002E0008DB9B29BFECF00C000C08DB9769BF5CF13
:1002F00000C000C000008FB19FEF9FB9B89A089569
:10030000C29AC29BFECF00C000C00000C09800C0CF
:1003100000C0C298C09A779905C083E080937A00A4
:1003200080E0089581E00895C098C29AB29BFECF04
:1003300000C000C0C09A00C000C00000759905C090
:1003400084E080937A0080E0089581E00895CF9260
:10035000DF92EF92FF920F931F93CF93DF938C0165
:10036000E62E80917A00816080937A00F801908176
:1003700090FD03C0826080937A00C2DF882309F475
:1003800046C0FE2CE801DD24DA94CC24C39480918D
:100390007A00837039F1C29889918FB980EF9BDF21
:1003A000B8988EEF98DF90917A0080FF06C090FF9A
:1003B00002C081E010C082E00EC0892F85708430B9
:1003C00069F4F801808181608083C0927A0098DFAF
:1003D000811115C08AE080937A0019C09E7F9093A6
:1003E0007A000FC0B89880EF76DF8993F1E0FF12B2
:1003F00002C0DFB801C01FB88EEF6DDF02C0FE2C57
:10040000E801FA9421F690DF91E0811101C090E0BB
:10041000892FDF91CF911F910F91FF90EF90DF9087
:10042000CF90089510927A0092CF04D06894B111C1
:100430008DC0089570D088F09F5790F0B92F9927FC
:10044000B751A0F0D1F0660F771F881F991F1AF0DF
:10045000BA95C9F712C0B13081F077D0B1E00895F4
:1004600074C0672F782F8827B85F39F0B93FCCF375
:10047000869577956795B395D9F73EF490958095D5
:10048000709561957F4F8F4F9F4F0895E89409C0F5
:1004900097FB3EF490958095709561957F4F8F4FB7
:1004A0009F4F9923A9F0F92F96E9BB279395F695CD
:1004B000879577956795B795F111F8CFFAF4BB0F4B
:1004C00011F460FF1BC06F5F7F4F8F4F9F4F16C0AF
:1004D000882311F096E911C0772321F09EE8872F39
:1004E000762F05C0662371F096E8862F70E060E0F5
:1004F0002AF09A95660F771F881FDAF7880F96956E
:10050000879597F9089557FD9058440F551F59F056
:100510005F3F71F04795880F97FB991F61F09F3FF0
:1005200079F087950895121613061406551FF2CF19
:100530004695F1DF08C0161617061806991FF1CF69
:1005400086957105610508940895E894BB27662790
:100550007727CB0197F908950AD080C071D028F091
:1005600076D018F0952309F062C067C0EFCFCBDFDB
:10057000A8F39923D9F35523C9F3950F50E0551FDC
:10058000AA27EE27FF27BB2700240894679520F4AD
:10059000E20FF31FB41F0A1E220F331F441FAA1FAE
:1005A0006695A9F7779530F4F30FB41F0A1E121E53
:1005B00008F46395330F441FAA1F221F769599F7FD
:1005C000879520F4B40F0A1E121E631F440FAA1F42
:1005D000221F331F8695A9F7862F712D602D1124B8
:1005E0009F5750408AF0E1F088234AF0EE0FFF1F3A
:1005F000BB1F661F771F881F91505040A9F79E3F71
:10060000510570F014C0A2CF5F3FECF3983EDCF3CD
:10061000869577956795B795F795E7959F5FC1F7AD
:10062000FE2B880F911D9695879597F9089597F958
:100630009F6780E870E060E008959FEF80EC089588
:1006400000240A94161617061806090608950024B1
:100650000A9412161306140605060895092E03942B
:10066000000C11F4882352F0BB0F40F4BF2B11F49F
:1006700060FF04C06F5F7F4F8F4F9F4F0895AA1B8D
:10068000BB1B51E107C0AA1FBB1FA617B70710F07D
:10069000A61BB70B881F991F5A95A9F780959095AF
:0A06A000BC01CD010895F894FFCFCE
:1006AA000000000101020202030304040505050615
:0A06BA0006070707080809090900F0
:00000001FF
